:1005D00020323020202D20202D20200020202020FF
:0905E00020203A20203A202000DE
:04051B007F057E00DA
:10051F00D3EF9400EE940040147D707C00ED1D70BD
:0D052F00011CED4C70F7EF1F70E61E80E31D
:01053C00229C
:0C000300C2A37F647E0012051FD2A3225E
:10061400C2A6C2A48F8000D2A67F017E0012051F4D
:04062400C2A6002248
:08059A00FF120614EB2430FFF0
:1005A200C2A6D2A48F8000D2A67F017E0012051FB0
:0405B200C2A60022BB
:10057D00C2A67F381206147F0C1206147F061206CF
:0D058D00147F011206147F017E0002051F7D
:10045C00D2AFD2AAD28AC200E4F514F515750F01F9
:10046C007D207F0A1205667D267F0B12056612041D
:10047C00A912057D7F80120614E4FBEB9005D09346
:10048C00FF1205A20BBB0FF37FC0120614E4FBEBAB
:0C049C009005DC93FF1205A20BBB0BF3D4
:0104A8002231
:0404D300AD0C7F0AE3
:1004D700ED75F00A12053DFBED75F00A12053DAE0C
:1004E700F0AA06EF24C012059AEA2430FF0205A2FB
:0404F700AD127F09BA
:1004FB00ED75F00A12053DFBED75F00A12053DAEE8
:10050B00F0AA06EF248012059AEA2430FF0205A216
:10034700AB077F8C120614EB14B4070040030203BB
:10035700D990036675F003A4C58325F0C58373029E
:10036700037B0203840203920203A00203AE02038B
:10037700BC0203CA7F4D1205A27F4F804D7F5412E6
:1003870005A27F551205A27F4580447F571205A21B
:100397007F451205A27F4480367F541205A27F480D
:1003A7001205A27F5580287F461205A27F521205AB
:1003B700A27F49801A7F531205A27F411205A27FAF
:1003C70054800C7F531205A27F551205A27F4E124F
:0303D70005A2225A
:1000160030012C30B00930B10630B20320B62012C0
:10002600051B30B00930B10630B20320B61130B02E
:10003600FD30B1FA30B2F730B6F4120003C2013027
:10004600B0030200F612051B30B0030200F630B012
:10005600FD051512000330000AE515D3940340038D
:10006600751501750A01E51514B40700504790008F
:100076008275F003A4C58325F0C583730200970239
:1000860000A00200A40200A80200AC0200B0020018
:10009600B47FCA1206147F0F80167FC780127FC4F2
:1000A600800E7F8C800A7F8980067F8680027F8310
:1000B600120614803BE4F5157F0C120614E4F50ACB
:1000C600AD0CFF120566AD117F02120566AD137FFA
:1000D60004120566AD0F7F06120566AD127F071284
:1000E6000566AD0D7F08120566AD107F091205661F
:1000F600E51570030202D130B1030201E712051BB8
:1001060030B1030201E730B1FD120003E51514B466
:10011600070040030201E790012B75F003A4C58395
:1001260025F0C5837302014002015602016F0201E8
:100136008802019F0201B40201CD050CD3E50C64CF
:100146008094BB4003E4F50C1204D37FCA0201E499
:100156000511D3E511648094BB4003E4F511AD119C
:100166007F071204D77FC780750513D3E513648014
:1001760094974003E4F513AD137F041204D77FC4AC
:10018600805C050FD3E50F648094874003750F01EB
:10019600AF0F1203477F8C80450512D3E5126480AA
:1001A600949F40037512011204F77F898030050D74
:1001B600D3E50D6480948C4003750D01AD0D7F066B
:1001C6001204FB7F8680170510D3E510648094E344
:1001D6004003E4F510AD107F031204FB7F83120683
:1001E6001430B2030202D112051B30B2030202D14F
:1001F60030B2FD120003E51514B4070040030202F5
:10020600D190021575F003A4C58325F0C58373024A
:10021600022A020240020259020272020289020204
:100226009E0202B7150CC3E50C64809480500375DA
:100236000C3B1204D37FCA0202CE1511C3E511642A
:10024600809480500375113BAD117F071204D77F50
:10025600C780751513C3E513648094805003751326
:1002660017AD137F041204D77FC4805C150FC3E556
:100276000F648094815003750F07AF0F1203477FF9
:100286008C80451512C3E512648094815003751263
:100296001F1204F77F898030150DC3E50D64809425
:1002A600815003750D0CAD0D7F061204FB7F868011
:1002B600171510C3E510648094805003751063AD64
:1002C600107F031204FB7F8312061420B6721205F8
:1002D6001B20B66C30B6FD120003B20020002CE4E1
:1002E600F50A7FC01206147F201205A27F20120590
:1002F600A27F0C120614AD0C7F01120566AD117FAC
:1003060003120566AD137F050205661205E9850829
:100316000C850911850B137FC01206147F52120536
:10032600A27F691205A27FC0120614AD0B7F0412CC
:1003360004D7AD097F071204D7AD087F0A1204D788
:010346002294
:07055F000F1205667D050F78
:10056600C294D295D297D2968F80C295C2968D802C
:07057600D296D295D2942227
:1005B600D295D297D296C2948F80C295C2977580F3
:0905C600FFAF80D297D295D294C8
:0105CF002209
:1004A900E4FDFF1205667D0A0F1205667D220F1213
:1004B90005660F1205667D0F0F12056612055F7D31
:0A04C9001412055F7D0B0F0205669B
:1005E9007F011205B68F087F031205B68F097F05B3
:0605F9001205B68F0B2273
:1003DA0012045C1200163001141200037F647E00BE
:1003EA0012051F1200037FF47E0112051FE50A7031
:1003FA00E22000DF1200167F091205B68F107F086F
:10040A001205B68F0D7F071205B68F127F061205E9
:10041A00B68F0F7F041205B68F137F021205B68FAF
:10042A0011E4FF1205B68F0C1204D3AD117F071227
:10043A0004D7AD137F041204D7AF0F120347AD10D0
:10044A007F031204FBAD0D7F061204FB1204F702B0
:02045A0003DDC0
:030013000205FFE4
:0705FF00C0D075D000C00759
:09060600D2017F0C1205B68F161B
:05060F00D007D0D0323D
:03000000020628CD
:0C062800787FE4F6D8FD7581200203DA2B
:10053D00C2D530F707B2D563F0FF05F030E70CB246
:10054D00D5F4048463F0FF05F080018430D502F406
:02055D00042276
:00000001FF
