:03000000020FE903
:0C0FE900787FE4F6D8FD75813A020C21F7
:100335003F065B4F666D7D077F6F777C395E797110
:100345000102030405060708090A0B0C04AE530A4B
:1003550057485526BD0D26500D954446AAB9056A40
:100365004D09AD4224AEB604AE4A6A4DBE0A4D52A1
:100375000D25465D52BA0B544E0D6A43296D37095A
:100385005B4B749BC10497540A4B485B25BC06A57F
:100395005006D4454ADAB802B64D0957422497B7F4
:1003A50004974A664B3E0D4A510EA54656D4BA05EA
:1003B500AD4E02B644393738092E4B7C96BF0C95A5
:1003C500530D4A486DA53B0B554F056A454AADB9D6
:1003D500025D4D092D422C95B60A954A7B4ABD060C
:1003E500CA510B5546555ABB04DA4E0A5B43352BA9
:1003F500B8052B4C8A953F0E955206AA487AD53CEE
:100405000AB54F04B6454A57390A574D0526423EA7
:1004150093350D954975AABE056A51096D4654AEC9
:10042500BB04AD4F0A4D434D26B70D254B8D52BF2D
:100435000B54520B6A47696D3C095B50049B454A56
:100445004BB90A4B4DAB25C206A55406D4496ADA09
:100455003D0AB6510937465497BB04974F064B449E
:1004650036A5370EA54A86B2BF05AC530AB647591D
:1004750036BC092E500C96454D4AB80D4A4C0DA573
:100485004125AAB6056A497AADBD025D52092D47D7
:100495005C95BA0A954E0B4A434B55370AD54A9592
:1004A5005ABF04BA530A5B48652BBC052B500A9307
:1004B50045474AB906AA4C0AD54124DAB604B64AD4
:1004C50069573D0A4E510D26465E933A0D534D052B
:1004D500AA4336B537096D4BB4AEBF04AD530A4DCB
:1004E500486D25BC0D254F0D52445DAA380B5A4C5D
:1004F500056D4124ADB6049B4A7A4BBE0A4B510AA1
:10050500A5465B52BA06D24E0ADA42355B37093741
:100515004B8497C1049753064B4866A53C0EA54FDF
:1005250006B2444AB6380AAE4C092E423C97350C01
:1005350096497D4ABD0D4A510DA54555AABA056A8C
:100545004E0A6D43452EB7052D4B8A95BF0A955327
:100555000B4A476B553B0AD54F055A454A5D380A44
:100565005B4C052B423A93B60693497729BD06AAFB
:10057500510AD54654DABA04B64E0A5743452738C8
:100585000D264A8E933E0D52520DAA4766B53B0580
:100595006D4F04AE454A4EB90A4D4C0D15412D928D
:1005A500B5001F3B5A7897B5D4F301110130014EC0
:040F3D007F057E00AE
:100F4100D3EF9400EE940040147D6E7C00ED1D7093
:0D0F5100011CED4C70F7EF1F70E61E80E3F1
:010F5E002270
:100FD200C293D290D292D2918F80C290C2918D80D0
:070FE200D291D290D29322BC
:100F9B00D290D292D291C2938F80C290C29275801E
:0B0FAB00FFAF80D290D292D2937E0064
:010FB6002218
:100EE500AE07AC03AB05AD0EE4FF120FD2AD0D7F1F
:100EF50002120FD2AD0C7F04120FD2AD0B7F06127A
:100F05000FD2AD040F120FD2AD030F120FD2AD06E3
:040F15000F020FD2E6
:070B2A00AF27EF3395E0FE59
:040B3100AB07AA065E
:100B3500E4F508F509FC7D0A1202D28E0A8F0BAE88
:100B450002AF037C007D0A1202D2D2A07402900388
:100B55003593F580C2A07580FFD2A17580FEC2A134
:100B6500D2A0E50993F580C2A07580FFD2A175805A
:100B7500FDC2A1D2A0E50B93F580C2A07580FFD27E
:100B8500A17580FBC2A1D2A0AF05EF93F580C2A0ED
:100B95007580FFD2A17580F7C2A1D2A17580FFC271
:010BA500A1AE
:010BA600222C
:100D9300D2A0EF75F00A8490033593F580C2A07555
:100DA30080FFD2A27580FEC2A2D2A0EF75F00A84A2
:100DB300E5F093F580C2A07580FFD2A27580FDC2D5
:090DC300A2D2A27580FFC2A22297
:100DCC00D2A0EF75F00A8490033593F580C2A0751C
:100DDC0080FFD2A27580EFC2A2D2A0EF75F00A8478
:100DEC00E5F093F580C2A07580FFD2A27580DFC2BA
:090DFC00A2D2A27580FFC2A2225E
:100BA700EF75F00A84750800F509EF75F00A84AF50
:100BB700F0750A008F0BED75F00A84FFED75F00AEA
:100BC70084ADF0D2A0E50990033593F580C2A075F6
:100BD70080FFD2A27580FBC2A2D2A0E50B93F5805D
:100BE700C2A07580FFD2A27580F7C2A2D2A0EF93F0
:100BF700F580C2A07580FFD2A27580BFC2A2D2A025
:100C0700AF05EF93F580C2A07580FFD2A275807FF4
:090C1700C2A2D2A27580FFC2A2A4
:010C200022B1
:100E0500D2A0EF75F00A8490033593F580C2A075E2
:100E150080FFD2A37580FEC2A3D2A0EF75F00A842D
:100E2500E5F093F580C2A07580FFD2A37580FDC261
:090E3500A3D2A37580FFC2A32221
:100E3E00D2A0EF75F00A8490033593F580C2A075A9
:100E4E0080FFD2A37580FBC2A3D2A0EF75F00A84F7
:100E5E00E5F093F580C2A07580FFD2A37580F7C22E
:090E6E00A3D2A37580FFC2A322E8
:0C0D4E00AF2E120E05AF2B120E3EAF268A
:100D5A00D2A0EF75F00A8490033593F580C2A0758E
:100D6A0080FFD2A37580EFC2A3D2A0EF75F00A84E8
:100D7A00E5F093F580C2A07580FFD2A37580DFC22B
:090D8A00A3D2A37580FFC2A322CD
:100E7700D2A0EF75F00A8490033593F580C2A07570
:100E870080FFD2A37580BFC2A3D2A0EF75F00A84FA
:100E9700E5F093F580C2A07580FFD2A375807FC26D
:090EA700A3D2A37580FFC2A322AF
:100EB000AF34120D93AF36120DCCAF38EF3395E04F
:010EC000FE33
:100EC100D2A074352FF58274033EF583E493F58047
:100ED100C2A07580FFD2A57580FEC2A5D2A575807E
:040EE100FFC2A52285
:100F5F00C2A67F677E00EF1F70011EEF4E70F7D2A3
:0E0F6F00A67E007F04EF1F70011EEF4E70F78C
:010F7D002251
:100F1900C2A60FBF0000D2A60FBF00000FBF00007E
:100F2900A2A692007E007F08EF1F70011EEF4E708F
:030F3900F7A2001C
:010F3C002292
:100F7E00E4FD7C01120F19E433FFC4333333548084
:0C0F8E00FEEDC3134EFD0CBC09EAAF05DC
:010F9A002234
:0C0CFA00120F5F7F017E00120F417FCCC3
:100D06007E01EF139200EFC313FF30001BC2A60B48
:100D1600BB00000BBB0000D2A67A007B08EB1B7061
:100D2600011AEB4A70F7801BC2A67A007B08EB1B00
:100D360070011AEB4A70F7D2A60BBB00010A0BBB77
:070D460000010A0EBE09BB0B
:010D4D002283
:080FF500120CFA7F44020D0604
:100C9100120CFA7FBE120D06120F7EAB07120F7EE9
:100CA1007529008F2AE52A752A00F529AF03EF423D
:100CB1002AE4AC29AD2A120206E4FBFA7980783DD8
:100CC1001200FB8F248E238D228C21E4FFFE7D20D8
:100CD1007C41AB24AA23A922A8211200FBE4FBFA40
:100CE100F9783F12000A12023F8E298F2A7C007D7B
:080CF1000A1202D28E298F2A9B
:010CF90022D8
:100FB7007D207F0A120FD27D260F120FD27580FF78
:0B0FC700C2A5C2A4C2A3C2A2C2A12204
:0609E100AD10AC0FAF0CDD
:1009E700EF14B40D004003020B299009FF75F003C3
:1009F700A4C58325F0C58373020A26020A3A020AB0
:100A07004E020A62020A76020A8A020A9E020AB2A3
:100A1700020AC6020ADA020AEE020B02020B167477
:100A2700512DF58274033CF583E49354087002C397
:100A370022D32274512DF58274033CF583E4935439
:100A4700047002C322D32274512DF58274033CF53E
:100A570083E49354027002C322D32274512DF5828A
:100A670074033CF583E49354017002C322D32274C8
:100A7700522DF58274033CF583E49354807002C3CE
:100A870022D32274522DF58274033CF583E49354E8
:100A9700407002C322D32274522DF58274033CF5B1
:100AA70083E49354207002C322D32274522DF5821B
:100AB70074033CF583E49354107002C322D3227469
:100AC700522DF58274033CF583E49354087002C3F6
:100AD70022D32274522DF58274033CF583E4935498
:100AE700047002C322D32274522DF58274033CF59D
:100AF70083E49354027002C322D32274522DF582E9
:100B070074033CF583E49354017002C322D3227427
:100B1700532DF58274033CF583E49354807002C32C
:020B270022D3D7
:010B290022A9
:10081300E50A540FFAE5082000072463FFE4338058
:100823000624FFFFE434FFFE7C007D031202C08E2A
:100833000F8F1074532510F5827403350FF583E47D
:1008430093FE5460FB7805FF08800103D8FDFBEE9F
:10085300541FFABB010514F50B8005EA241EF50BA2
:10086300E509C3940AE509500B9005A593250AFFF2
:10087300E433801525E0249BF582E43405F5837485
:100883000193250AFFE4933400CF24FFF50EEF34E0
:10089300FFF50DE509D39402400EE50854037008F3
:1008A300050EE50E7002050DAF0B7E00C3E50E9F2E
:1008B300E50D9E4079E50E9FF50EE50D9EF50D7550
:1008C3000901750C011209E19201C2022001047BA6
:1008D3001D80027B1E74512510F5827403350FF5BC
:1008E30083E49354F0FA7804FF08800103D8FDFAF7
:1008F300EBFF7E00C3E50E9FE50D9E402CE50E9FAA
:10090300F50EE50D9EF50D050CE509B50209B202DC
:100913002002060509800205091209E1920120015E
:10092300047B1D80CB7B1E80C7E50E0209B6C3E5A1
:100933000B950EF50BE5087007750863D20080026E
:10094300150874FD2510F51074FF350FF50F7509A3
:100953000CFE74512510F58274033EF583E4935421
:10096300F0FA7804FF08800103D8FDFA7005750CCE
:100973000C8003750C0DC2021209E19201200104DF
:100983007B1D80027B1EE50BD39B4023E50B9BF570
:100993000B150C2002021509E509B50202B2021279
:1009A30009E192012001047B1D80DB7B1E80D7C3FC
:1009B300EB950B04F50AA2009203E50875F00A848F
:1009C300FB7804FF08800123D8FDFBE50875F00AD6
:0D09D30084AAF0EB4AF53185092D850A351F
:0109E00022F4
:1005B500E4F92095147FF47E01120F41209501097D
:1005C5003095FD120F3D3095FDE9700302081220AC
:1005D5009510120F3D209501093095FD120F3D3004
:1005E50095FDE964017043120B2A20961D120F3DFB
:1005F50020960E0527D3E527648094E34003E4F5B0
:10060500273096FD120F3D3096FD20971D120F3DA8
:1006150020970E1527C3E52764809480500375271E
:10062500633097FD120F3D3097FDE964027045AFC9
:1006350034120D9320961D120F3D20960E0534D3CE
:10064500E5346480948C40037534013096FD120FB7
:100655003D3096FD20971D120F3D20970E1534C392
:10066500E53464809481500375340C3097FD120F86
:100675003D3097FDE964037045AF36120DCC2096E9
:100685001D120F3D20960E0536D3E5366480949FE6
:1006950040037536013096FD120F3D3096FD2097CB
:1006A5001D120F3D20970E1536C3E53664809481E3
:1006B500500375361F3097FD120F3D3097FDE964E5
:1006C500047043120EBA20961D120F3D20960E059A
:1006D50038D3E5386480948740037538013096FD3A
:1006E500120F3D3096FD20971D120F3D20970E15D8
:1006F50038C3E5386480948150037538073097FD19
:10070500120F3D3097FDE964057045AF2E120E05B9
:1007150020961D120F3D20960E052ED3E52E6480E2
:1007250094974003E4F52E3096FD120F3D3096FD6B
:1007350020971D120F3D20970E152EC3E52E6480C0
:1007450094805003752E173097FD120F3D3097FD9D
:10075500E964067045AF2B120E3E20961D120F3D23
:1007650020960E052BD3E52B648094BB4003E4F55E
:100775002B3096FD120F3D3096FD20971D120F3D33
:1007850020970E152BC3E52B648094805003752BA1
:100795003B3097FD120F3D3097FDE964077045AF7B
:1007A50026120D5A20961D120F3D20960E0526D3B2
:1007B500E526648094BB4003E4F5263096FD120FD0
:1007C5003D3096FD20971D120F3D20970E1526C32F
:1007D500E52664809480500375263B3097FD120F03
:1007E5003D3097FDE9640860030205CE85380B8529
:1007F5002E0C852B0D85260EAB36AD34AF27120E8C
:0D080500E5120B2A120EB0120D4E0205CEA8
:0108120022C3
:100C2100120FB7120FF5120C91120E777F09120FE6
:100C31009B8F277F08120F9B8F347F07120F9B8F8B
:100C4100367F06120F9B8F387F04120F9B8F2E7FEA
:100C510002120F9B8F2BE4FF120F9B8F26F5258528
:100C6100273985343785363AE52524FF92008539C1
:100C710008853709853A0A120813120B2A120EB099
:100C8100AD35AF2D120BA7120D4E1205B5020C2476
:100003000202ABE86480F8E933E83360110460F07E
:10001300ED33EC337009E8FCE9FDEAFEEBFF220463
:1000230060DED3EB9FEA9EE99DE8C2E78CF0C2F75E
:1000330095F0400CE8CCF8E9CDF9EACEFAEBCFFB2A
:1000430012027685D0F05804700320D5B3E804700B
:10005300075002B2D50202B592D5EC0460F7E4CCA6
:10006300C0E0C398F8603B94186008400DD0E0FBF3
:1000730002028DE4FBFAC9FC8028E830E406E4C9F7
:10008300FBE4CAFCE830E305E4C9CACBFCE8540747
:100093006010F8C3E913F9EA13FAEB13FBEC13FC52
:1000A300D8F130F52FC3E49CFCEF9BFFEE9AFEEDF5
:1000B30099FDD0E0FBEF4E4D4C701222DB030202A0
:1000C300B2EC2CFCEF33FFEE33FEED33FDED30E706
:1000D300EB02028DEF2BFFEE3AFEED39FDD0E0FB94
:1000E30050130BBB00030202B5ED13FDEE13FEEF3D
:0800F30013FFEC13FC02028D67
:1000FB00EC4D6011E8497017ED33EC3304600DE4FF
:10010B00FCFFFEFD22E933E8330470F80202AB1268
:10011B00027658046009E4CC248150062850090269
:10012B0002B52840030202B2C0E0EB4A7044B9802A
:10013B0006D0E0FB0202A1EF4E701CBD8008EBFF66
:10014B00EAFEE9FD80EBE98DF0A4FEE5F00201E4A7
:10015B00E9CDF9EAFEEBFFEF89F0A4FCE5F0CE89DF
:10016B00F0A42EFFE435F0CD89F0A42DFEE435F09C
:10017B008067EF4E7005BD80D780C3EF8BF0A4ACCA
:10018B00F0EE8BF0A42CFCE435F0F8EF8AF0A42C05
:10019B00E5F038FCE433CB8DF0A42CFCE5F03BF818
:1001AB00EE8AF0A42CFCE5F038F8E433CF89F0A408
:1001BB002CFCE5F038CF3400CE89F0A42FFFE5F00E
:1001CB003EFEE433C98DF0A42EFEE5F039CD8AF066
:1001DB00A42FFFE5F03EFEE43DFD33D0E0FB5007DE
:1001EB000BBB000F0202B5EC2CFCEF33FFEE33FE22
:0601FB00ED33FD02028D50
:1002010075F020800E75F010800575F0087D007E78
:10021100007F003392D530D503120327EC33401011
:10022100EF33FFEE33FEED33FDEC33FCD5F0ED2281
:0E023100E5F0247EA2D513CC92E7CDCEFF22BD
:10023F00EDD2E7CD33EC3392D524814006E4FFFEB7
:10024F00FDFC22FCE4CFCECDCC24E0501174FF8016
:10025F00EDC3CC13CCCD13CDCE13CECF13CF0470B3
:07026F00F030D5DE02032789
:10027600E9D2E7C933E833F892D5EDD2E7CD33ECCE
:0702860033FC5002B2D52247
:10028D00EC30E7100FBF000C0EBE00080DBD0004D2
:10029D000BEB6014A2D5EB13FCED92E7FD2274FF7E
:1002AD00FCFDFEFF22E480F8A2D574FF13FC7D80D7
:0302BD00E480EFEB
:1002C000EF8DF0A4A8F0CF8CF0A428CE8DF0A42E52
:0202D000FE220C
:1002D200BC000BBE0029EF8DF084FFADF022E4CC10
:1002E200F875F008EF2FFFEE33FEEC33FCEE9DECD9
:1002F200984005FCEE9DFE0FD5F0E9E4CEFD22ED1F
:10030200F8F5F0EE8420D21CFEADF075F008EF2F68
:10031200FFED33FD4007985006D5F0F222C398FD59
:050322000FD5F0EA22F6
:0E032700C3E49FFFE49EFEE49DFDE49CFC22E7
:00000001FF
